S01A00004779726F4D6F746F72436F6E74726F6C65722E73726563A0
S11300000C943C000C9459000C9459000C94590025
S11300100C9459000C9459000C9459000C945900F8
S11300200C9459000C9459000C9459000C94D2016E
S11300300C9459000C9459000C9459000C945900D8
S11300400C9459000C9459000C9459000C945900C8
S11300500C9459000C9459000C9459000C945900B8
S11300600C9459000C945900870279026B02960291
S1130070AC02A502BC02B30211241FBECFEFD8E02C
S1130080DEBFCDBF11E0A0E0B1E0E0EFF9E002C0D7
S113009005900D92A432B107D9F721E0A4E2B1E0B2
S11300A001C01D92AC3BB207E1F70E9401020C941F
S11300B0F6040C940000FC01718360835383428333
S11300C01586148611860895FC018AB18F738AB946
S11300D08BB1806C8BB985B78F7E85BF14821582F6
S11300E011821082138212820895FC0185814F9B34
S11300F011C0811103C01382128205C082819381D1
S1130100019693838283828193810A97B4F0158246
S113011081E010C0882319F01382128205C0828105
S11301209381019693838283828193810A972CF031
S113013081E0858387831382128284814E9B11C060
S1130140811103C01182108205C0808191810196C2
S113015091838083808191810A97B4F0148281E035
S113016010C0882319F01182108205C0808191810A
S1130170019691838083808191810A972CF081E09C
S113018084838683118210820895CF93DF931F9214
S1130190CDB7DEB783E791E00E947803BE016F5FBD
S11301A07F4F83E791E00E94C303882369F089812C
S11301B08D3029F46AE083E791E00E94E6036981C7
S11301C083E791E00E94E60383E791E00E947803CD
S11301D00F90DF91CF910895EF92FF920F931F93A9
S11301E0CF93DF93209AC3E0D0E00E94C5000AE0D9
S11301F010E030EDE32E37E0F32E0E94C500289A7C
S113020081E0E81AF108C9F70150110991F70AE0F1
S113021010E020EDE22E27E0F22E0E94C50028987F
S113022081E0E81AF108C9F70150110991F7219703
S1130230E1F6C3E0D0E00E94C5000AE010E090EDD2
S1130240E92E97E0F92E0E94C500289A81E0E81A69
S1130250F108C9F70150110991F70AE010E080EDA7
S1130260E82E87E0F82E0E94C500289881E0E81A5D
S1130270F108C9F70150110991F72197E1F628987F
S1130280DF91CF911F910F91FF90EF900895CF933D
S1130290DF93CDB7DEB7E2970FB6F894DEBF0FBE9B
S11302A0CDBF789483E791E00E94600360E071E041
S11302B0CE0101960E94EF04BE016F5F7F4F83E77A
S11302C091E00E9407040E94EC000E94C500AAE489
S11302D0B1E0E0E5F1E01D921192119281E0EA357E
S11302E0F807C9F789E491E00E94C50286E391E02A
S11302F00E941C048FE291E00E94050287E291E0D3
S11303000E946400109226011092250140E551E0FC
S11303106AE471E08EE591E00E945B0010926B014B
S113032010926A0110926D0110926C01109270018A
S113033010926F0161E271E0CE0101960E94EF0418
S1130340BE016F5F7F4F83E791E00E94070411E0D5
S113035086E391E00E94350487E291E00E947500F3
S113036083E791E00E947803809125019091260112
S11303704F977CF0109226011092250185B18127B8
S113038085B940914801609147018FE291E00E9454
S113039006028091340180934A0180913301809355
S11303A04B01D6CF1F920F920FB60F9211242F93A9
S11303B03F934F935F936F937F938F939F93AF93E9
S11303C0BF93EF93FF9389E491E00E94010380912E
S11303D02501909126010196909326018093250191
S11303E0FF91EF91BF91AF919F918F917F916F9109
S11303F05F914F913F912F910F900FBE0F901F90DF
S1130400189584E291E00E9447010895DC0183E19C
S1130410860F71E0873208F070E051E083E1840FC9
S1130420873208F050E0772331F0552321F01696F7
S11304301C9216973EC091E064310CF490E031E0D8
S113044044310CF430E0992321F0332311F085E09A
S11304502DC021E04D3E0CF020E0992321F0222311
S113046011F087E023C081E06D3E0CF080E033237F
S113047021F0882311F086E019C0222321F088237B
S113048011F088E013C0772341F0332311F083E0A7
S11304900DC0222311F084E009C0552341F29923B1
S11304A011F081E003C0882311F282E016968C9348
S11304B016971696EC9116974E2FEE0F550B660B6A
S11304C0770BFA013197E830F10508F05DC0EC5C78
S11304D0FF4F0C94E90415968C91159714969C91F2
S11304E014978A370CF050C09A370CF04DC09F5FB8
S11304F019C014969C91149715968C9115979A3758
S11305000CF042C088380CF43FC09F5F1AC01496A8
S11305109C91149715968C9115979838ACF18A375D
S11305209CF5915014969C9314971BC014969C911F
S1130530149715968C911597983834F1883824F1CE
S1130540915014969C9314971CC014968C911497F4
S11305508A37D4F48F5F0DC015968C9115978A371E
S11305609CF48F5F0FC014968C911497883864F0B4
S1130570815014968C93089515968C91159788380C
S11305801CF0815015968C930895CF93DF93FC0152
S1130590A1E8B0E08C9182608C938C918A7F8C93DB
S11305A0C0E8D0E088818C7F88838C9188608C93AC
S11305B08C918F7E8C9382E080936F0087B18F63E0
S11305C087B9108281E088B92081022E000C330B98
S11305D0DF01A20FB31F11964C91220F331FE20FBC
S11305E0F31F878190858556944F28E04202800D41
S11305F0911D11249093890080938800DF91CF91FD
S11306000895CF93DF93FC01308137FD0AC028B1F0
S113061081E090E001C0880F3A95EAF78095822343
S113062088B920812F5F2083263024F538B181E0FA
S113063090E001C0880F2A95EAF7832B88B980815E
S1130640082E000C990BDF01A80FB91F11962C91ED
S1130650880F991FE80FF91F878190858556944F5D
S113066038E02302800D911D11249093890080931A
S1130670880023C08FEF8083DF011796EF01219656
S1130680AF014D5E5F4F20E030EA8D919D916991FD
S11306908556944F78E06702800D911D1124281B24
S11306A0390B4A175B0789F7309389002093880038
S11306B0838994890196948B838BDF91CF910895DC
S11306C028E12093C1002EE02093C2001092C500BF
S11306D029E12093C400FC0111A210A213A212A2CA
S11306E0EC5BFF4F118210823296118210820895C2
S11306F0CF93DF93FC018091C00085FF18C082A1D5
S113070093A120A131A18217930789F0DF01A80FDB
S1130710B91F8C918093C60082A193A10196803267
S113072091051CF493A382A302C013A212A2809188
S1130730C00087FF25C0DF01AC5BBF4F8D919C914A
S11307401197EF01CA5BDF4F8F31910524F02881A7
S11307503981232BA9F09C012F5F3F4F4881598198
S11307602417350769F04091C600E80FF91F44A328
S1130770203231051CF42D933C9302C01D921C922F
S1130780DF91CF910895FC01EA5BFF4F2081318115
S1130790DC01AC5BBF4F4D915C9124173507A1F090
S11307A0DC01A20FB31F94968C91DB018C938081A2
S11307B091810196803291051CF49183808302C05B
S11307C01182108281E0089580E00895FC0180A1E7
S11307D091A142A153A18F3191051CF041155105FE
S11307E0A1F09C012F5F3F4F2417350771F0DF0103
S11307F0A80FB91F6C93203231051CF431A320A338
S113080002C011A210A281E0089580E008950F9320
S11308101F93CF93DF938C01EB0181E069916623F1
S113082031F0882321F0C8010E94E603F7CFDF915D
S1130830CF911F910F910895FC018AB1837C8AB9ED
S11308408BB18C638BB91182108213821282158250
S113085014821782168210861186128613861486D5
S1130860158616861786108A0895FC0180854A9B92
S113087011C0811103C01182108205C08081918151
S1130880019691838083808191810A97B4F01086C8
S113089081E010C0882319F01182108205C0808184
S11308A09181019691838083808191810A972CF0B4
S11308B081E0808784871182108283854B9B11C0DD
S11308C0811103C01782168205C086819781019623
S11308D097838683868197810A97B4F0138681E093
S11308E010C0882319F01782168205C0868197816B
S11308F0019697838683868197810A972CF081E0FD
S1130900838787871782168282854C9B11C0811149
S113091003C01582148205C0848195810196958354
S11309208483848195810A97B4F0128681E010C093
S1130930882319F01582148205C08481958101965B
S113094095838483848195810A972CF081E0828742
S113095086871582148281854D9B11C0811103C045
S11309601382128205C082819381019693838283CC
S1130970828193810A97B4F0118681E010C08823A4
S113098019F01382128205C08281938101969383A8
S11309908283828193810A972CF081E08187858705
S11309A013821282118A128A8085882311F088E2C8
S11309B0828B8185882311F088ED828B8285882340
S11309C011F088ED818B8385882311F088E2818B77
S11309D00895EE0FFF1F0590F491E02D0994FB019B
S11309E0DC0101900D920020E1F70895F894FFCF07
S11309F053746172746564205375626D6172696EBB
S1130A0065204E65752032383032323032310D0A6D
S1070A10003E0000A0
S9030000FC
