:100000000C943D000C945A000C945A000C945A0025
:100010000C945A000C945A000C945A000C945A00F8
:100020000C945A000C945A000C945A000C94390207
:100030000C945A000C945A000C945A000C945A00D8
:100040000C945A000C945A000C945A000C945A00C8
:100050000C945A000C945A000C945A000C945A00B8
:100060000C945A000C945A00A300B800C400D300AA
:10007000E500F20003012001320111241FBECFEF81
:10008000D8E0DEBFCDBF11E0A0E0B1E0E2E9F7E0EB
:1000900002C005900D92AC32B107D9F721E0ACE275
:1000A000B1E001C01D92A03AB207E1F70E945F02E1
:1000B0000C94C7030C940000FC017183608353838C
:1000C00042831586148611860895FA0111821082E2
:1000D000DB01149621E030E08E9190ED980F9A307C
:1000E00018F490E0C09706C09FEB980F9630C8F4C4
:1000F00090E0C797829FA001839F500D929F500D63
:10010000112480819181840F951F9183808384E0E5
:10011000220F331F8A95E1F7A617B707E9F681E0AA
:10012000089580E00895CF93DF93DC011C96ED9154
:10013000FC911D97E930F10508F09AC0EC01EC5CE8
:10014000FF4F0C94BA03633419F481E090E004C0CB
:10015000613429F485E090E09D878C8789C06D30FB
:1001600009F486C06A3009F483C088E090E0F4CFD7
:100170008FEC860F8630C8F770E0615371097F8776
:100180006E8782E090E0E8CF80ED860F8A3028F01D
:100190008FEB860F863048F7675F6295607F688BCC
:1001A00083E090E0D9CF80ED860F8A3018F48889FB
:1001B000805306C08FEB860F8630B8F68889875348
:1001C000680F688B84E090E0C7CF6D3011F06A3023
:1001D00061F62889E881F9818E859F85E80FF91FEE
:1001E000208344C08FEC860F863008F0BECF70E0CD
:1001F000615371097A8B698B86E090E09D878C87CB
:100200001B861A8635C08A859B859C012F5F3F4FD0
:100210003B872A87FD01E80FF91F648324303105ED
:1002200039F5AD014D5E5F4FBD016C5F7F4FCD0174
:100230000E946500882309F498CF87E090E08CCF76
:100240006D3019F06A3009F090CF8B899C89E9896B
:10025000FA89EE0FFF1F2A813B81E20FF31F918382
:10026000808304C06D3011F06A3011F41D861C8645
:10027000DF91CF910895CF93DF931F92CDB7DEB773
:1002800087E591E00E941603BE016F5F7F4F87E50F
:1002900091E00E946103882369F089818D3029F4FF
:1002A0006AE087E591E00E948403698187E591E037
:1002B0000E94840387E591E00E9416030F90DF916E
:1002C000CF910895EF92FF920F931F93CF93DF93F7
:1002D000209AC3E0D0E00E943B010AE010E030ED3C
:1002E000E32E37E0F32E0E943B01289A81E0E81AC2
:1002F000F108C9F70150110991F70AE010E020ED6B
:10030000E22E27E0F22E0E943B01289881E0E81AB5
:10031000F108C9F70150110991F72197E1F6C3E0FF
:10032000D0E00E943B010AE010E090EDE92E97E05A
:10033000F92E0E943B01289A81E0E81AF108C9F7DA
:100340000150110991F70AE010E080EDE82E87E0F6
:10035000F82E0E943B01289881E0E81AF108C9F7BD
:100360000150110991F72197E1F62898DF91CF917B
:100370001F910F91FF90EF900895CF93DF93CDB72A
:10038000DEB7E3970FB6F894DEBF0FBECDBF78940B
:1003900087E591E00E94FE0260E071E0CE010196E7
:1003A0000E94C003BE016F5F7F4F87E591E00E940E
:1003B000A5030E9462010E943B01AEE2B1E0E4E3CA
:1003C000F1E01D921192119281E0EE33F807C9F726
:1003D0008DE291E00E94630244E351E06EE271E03D
:1003E00082E491E00E945C0010924F0110924E0155
:1003F0001092510110925001109254011092530129
:100400006AE271E0CE0101960E94C003BE016F5FF7
:100410007F4F87E591E00E94A5031BAA87E591E045
:100420000E941603BE016D5C7F4F87E591E00E943C
:100430006103882399F36BA987E591E00E94840307
:100440006BA982E491E00E94930080914E0190910B
:100450004F01892B19F768E271E0CE0101960E94E5
:10046000C003BE016F5F7F4F87E591E00E94A50347
:10047000D5CF1F920F920FB60F9211242F933F9357
:100480004F935F936F937F938F939F93AF93BF939C
:10049000EF93FF938DE291E00E949F02FF91EF9115
:1004A000BF91AF919F918F917F916F915F914F918C
:1004B0003F912F910F900FBE0F901F9018958CE2D7
:1004C00091E00E94BD01CF93DF93FC01A1E8B0E071
:1004D0008C9182608C938C918A7F8C93C0E8D0E061
:1004E00088818C7F88838C9188608C938C918F7E9F
:1004F0008C9382E080936F0087B18F6387B91082FD
:1005000081E088B92081022E000C330BDF01A20F9D
:10051000B31F11964C91220F331FE20FF31F8781F7
:1005200090858556944F28E04202800D911D11243C
:100530009093890080938800DF91CF910895CF93A5
:10054000DF93FC01308137FD0AC028B181E090E0E3
:1005500001C0880F3A95EAF78095822388B92081F7
:100560002F5F2083263024F538B181E090E001C070
:10057000880F2A95EAF7832B88B98081082E000C12
:10058000990BDF01A80FB91F11962C91880F991FA5
:10059000E80FF91F878190858556944F38E0230234
:1005A000800D911D1124909389008093880023C0B1
:1005B0008FEF8083DF011796EF012196AF014D5E2B
:1005C0005F4F20E030EA8D919D9169918556944F5F
:1005D00078E06702800D911D1124281B390B4A1702
:1005E0005B0789F730938900209388008389948979
:1005F0000196948B838BDF91CF91089528E120930E
:10060000C1002EE02093C2001092C50029E1209382
:10061000C400FC0111A210A213A212A2EC5BFF4FB6
:10062000118210823296118210820895CF93DF9347
:10063000FC018091C00085FF18C082A193A120A178
:1006400031A18217930789F0DF01A80FB91F8C91A0
:100650008093C60082A193A10196803291051CF47B
:1006600093A382A302C013A212A28091C00087FFAD
:1006700025C0DF01AC5BBF4F8D919C911197EF01BD
:10068000CA5BDF4F8F31910524F028813981232BFC
:10069000A9F09C012F5F3F4F4881598124173507EE
:1006A00069F04091C600E80FF91F44A320323105DC
:1006B0001CF42D933C9302C01D921C92DF91CF91AC
:1006C0000895FC01EA5BFF4F20813181DC01AC5BC6
:1006D000BF4F4D915C9124173507A1F0DC01A20FAB
:1006E000B31F94968C91DB018C938081918101964C
:1006F000803291051CF49183808302C011821082A4
:1007000081E0089580E00895FC0180A191A142A1BB
:1007100053A18F3191051CF041155105A1F09C01A9
:100720002F5F3F4F2417350771F0DF01A80FB91F66
:100730006C93203231051CF431A320A302C011A216
:1007400010A281E0089580E008950F931F93CF9346
:10075000DF938C01EB0181E06991662331F08823FE
:1007600021F0C8010E948403F7CFDF91CF911F9140
:100770000F910895EE0FFF1F0590F491E02D09945D
:10078000FB01DC0101900D920020E1F70895F8943F
:02079000FFCF99
:1007920053746172746564205375626D6172696E1F
:1007A20065204E65752047616E7A65732030313061
:0C07B20035323032300A0D000D0A3E00D6
:00000001FF
