:100000000C9434000C9451000C9451000C94510049
:100010000C9451000C9451000C9451000C9451001C
:100020000C9451000C9451000C9451000C946301F9
:100030000C9451000C9451000C9451000C945100FC
:100040000C9451000C9451000C9451000C945100EC
:100050000C9451000C9451000C9451000C945100DC
:100060000C9451000C94510011241FBECFEFD8E026
:10007000DEBFCDBF11E0A0E0B1E0E4E8FEE002C0E9
:1000800005900D92AE32B107D9F721E0AEE2B1E0B2
:1000900001C01D92A939B207E1F70E9492010C94A8
:1000A00040070C940000CF93DF931F92CDB7DEB7CB
:1000B00080E591E00E942D03BE016F5F7F4F80E5D8
:1000C00091E00E948603882369F089818D3029F4AC
:1000D0006AE080E591E00E94AE03698180E591E0ED
:1000E0000E94AE0380E591E00E942D030F90DF9106
:1000F000CF910895EF92FF920F931F93CF93DF93C9
:10010000209A0F2EF3E0EF2EF12CF02D0E945300D9
:100110000AE010E0C0EDD7E00E945300289A219732
:10012000D9F701501109B1F70AE010E0C0EDD7E0AE
:100130000E94530028982197D9F701501109B1F76F
:1001400081E0E81AF10811F70F2EF3E0EF2EF12C01
:10015000F02D0E9453000AE010E0C0EDD7E00E94AD
:100160005300289A2197D9F701501109B1F70AE0F5
:1001700010E0C0EDD7E00E94530028982197D9F7EE
:1001800001501109B1F781E0E81AF10811F7289838
:10019000DF91CF911F910F91FF90EF900895CF9332
:1001A000DF93CDB7DEB7E2970FB6F894DEBF0FBE90
:1001B000CDBF7894ACE3B1E0E2E4F1E08EE491E00D
:1001C0001D9211921192E817F907D1F78BE391E094
:1001D0000E94700281E391E00E94960180E591E027
:1001E0000E94150389E391E00E94F603109230010A
:1001F00010922F0188E1E0E0F1E0DE01119601901C
:100200000D928A95E1F7BE016F5F7F4F80E591E027
:100210000E94DC030E947A000F2EFBE3EF2EF1E038
:10022000FF2EF02D0F2EF8E1AF2EF1E0BF2EF02DB6
:10023000CE0101966C0108EE13E00E94530089E3A1
:1002400091E00E94070480912F01909130010B975B
:1002500064F01092300110922F01E9E3F1E0418146
:10026000608181E391E00E949701E1E3F1E0858103
:10027000D70111968C931197948112969C930150FB
:100280001109D9F627812F9326812F93292F092E23
:10029000000C330B3F939F93282F082E000C330B39
:1002A0003F938F93BF92AF92DF92CF920E945604FA
:1002B000B60180E591E00E94DC030FB6F894DEBF42
:1002C0000FBECDBFB8CF1F920F920FB60F92112461
:1002D0002F933F934F935F936F937F938F939F934E
:1002E000AF93BF93EF93FF938BE391E00E94AD0236
:1002F00080912F019091300101969093300180936D
:100300002F01FF91EF91BF91AF919F918F917F91BD
:100310006F915F914F913F912F910F900FBE0F9072
:100320001F9018958EE291E00E94CF000895FC0185
:1003300083E1860F91E0873208F090E021E083E1CD
:10034000840F873208F020E0992329F0222319F046
:1003500017821682089581E064310CF480E031E068
:1003600044310CF430E0882359F0332349F085E020
:1003700090E09783868385818A370CF4A8C008951E
:1003800051E04D3E0CF050E0882359F0552349F0E0
:1003900087E090E097838683858188380CF09DC044
:1003A000089541E06D3E0CF040E0332359F04423C2
:1003B00049F086E090E09783868384818A370CF445
:1003C00083C00895552359F0442349F088E090E014
:1003D00097838683848188380CF07CC008959923A4
:1003E000B1F03323A1F083E090E097838683858189
:1003F000948121E08A370CF420E0211170C021E0C3
:100400009A370CF420E0222309F44AC00895992376
:10041000B1F05523A1F084E090E097838683848136
:10042000958121E088380CF020E0211158C021E0AE
:1004300098380CF020E0222309F441C008952223CB
:10044000A9F0882399F081E090E0978386838481E6
:10045000958121E088380CF020E0211140C021E096
:100460009A370CF420E0222329F108952223A9F0E1
:10047000442399F082E090E097838683848195817C
:1004800021E08A370CF420E0211129C021E09838BE
:100490000CF020E0222349F0089517821682089577
:1004A0009F5F94838F5F858308958F5F84839150CE
:1004B00095830895815084839F5F9583089581502B
:1004C00084839150958308958F5F848308958F5F0F
:1004D000858308958150848308958150858308958C
:1004E000CF93DF93DC01E1E8F0E0808182608083DC
:1004F00080818A7F8083C0E8D0E088818C7F888378
:1005000080818860808380818F7E808382E0809379
:100510006F0087B18F6387B91C9281E088B99C9185
:10052000292F990F330BF901EE0FFF1FEA0FFB1F65
:10053000478150854556544FFD01E20FF31F8181DD
:100540009A0168E08602200D311D11243093890044
:1005500020938800DF91CF910895CF93DF93DC0142
:100560003C9133235CF028B181E090E002C0880F19
:10057000991F3A95E2F78095822388B98C918F5F15
:100580008C93863044F548B121E030E0B90102C0D7
:10059000660F771F8A95E2F7CB01842B88B98C917F
:1005A000082E000C990BFC01EE0FFF1FEA0FFB1F3A
:1005B000278130852556344FA80FB91F11968C918D
:1005C000A90168E08602400D511D11245093890055
:1005D0004093880027C08FEF8C93FD013796ED0183
:1005E0002196BD016D5E7F4F80E090EA21913191AF
:1005F00049912556344F58E04502200D311D1124F4
:10060000821B930BE617F70789F790938900809375
:10061000880053968D919C915497019654969C9383
:100620008E935397DF91CF91089528E12093C100D5
:100630002EE02093C2001092C50029E12093C4004F
:10064000FC0111A210A213A212A2EC5BFF4F1182B7
:10065000108232961182108208952091C00025FFE9
:100660001BC0FC0122A133A140A151A124173507D1
:1006700099F0E20FF31F20812093C600FC0122A114
:1006800033A12F5F3F4F203231051CF433A322A347
:1006900003C0FC0113A212A22091C0002223ACF5DA
:1006A000FC01EC5BFF4F20813181A9014F5F5F4F5F
:1006B000403251053CF032966081718161157105BF
:1006C00009F50895FC01EA5BFF4F608171814617CF
:1006D0005707D9F06091C600FC01E20FF31F64A335
:1006E000FC01EC5BFF4F5183408308954091C600AD
:1006F000FC01E20FF31F44A3FC01EC5BFF4F1182EE
:10070000108208954617570789F70895FC01EA5BA0
:10071000FF4F208131813297408151812417350765
:10072000D9F0FC01E20FF31F24A1FB012083FC019F
:10073000EA5BFF4F208131812F5F3F4F203231052F
:1007400024F43183208381E00895FC01EA5BFF4FAC
:100750001182108281E0089580E00895FC0180A15B
:1007600091A19C012F5F3F4F2032310534F042A10F
:1007700053A141155105E1F40DC042A153A1241725
:10078000350751F0DF01A80FB91F6C9331A320A3E7
:1007900081E0089580E0089580E0089580E0089564
:1007A000DF01A80FB91F6C9311A210A281E0089578
:1007B00024173507A9F7F2CF0F931F93CF93DF9339
:1007C000EB016881662361F08C01219602C08823C9
:1007D00041F0C8010E94AE0369916111F8CF01C0D8
:1007E00081E0DF91CF911F910F910895EAE7F0E04A
:1007F000808187608083808180688083ECE7F0E07F
:1008000080818064808380818F7780830895DC017C
:10081000ECE7F0E08081807F808380818760808347
:10082000EAE7F0E0808180648083908196FDFDCFCF
:100830004091780050917900ECE7F0E08081807F72
:100840008083808186608083EAE7F0E08081806435
:100850008083908196FDFDCF2091780030917900C2
:10086000275E3140C9012038310514F42C9302C0B1
:100870002FE72C9381389F4F14F481E88C9321EF5C
:1008800031E0241B350BC9012038310524F41196C1
:100890002C93119704C02FE711962C931197813850
:1008A0009F4F1CF481E811968C930895AEE0B0E060
:1008B000ECE5F4E00C9417070D891E8986E08C8323
:1008C0001A8309838FEF9FE79E838D83AE01475E76
:1008D0005F4F6F89788DCE0101960E947804EF8179
:1008E000F885E00FF11F10822E96E4E00C94330798
:1008F000ABE0B0E0EEE7F4E00C9409076C017B019B
:100900008A01FC0117821682838181FFCCC1CE014E
:1009100001963C01F6019381F70193FD859193FFC8
:1009200081917F01882309F4BAC1853239F493FD9E
:10093000859193FF81917F01853229F4B60190E082
:100940000E946F06E7CF912C212C312CFFE1F3158B
:10095000D8F08B3279F038F4803279F08332A1F418
:10096000232D20611DC08D3261F0803369F4232D69
:10097000216016C0832D8260382EE32DE4603E2E68
:100980002AC0F32DF8601DC037FC2DC020ED280FC4
:100990002A3040F08E32B9F436FC81C1232D206418
:1009A000322E19C036FE06C08AE0989E200D112412
:1009B000922E11C0EAE02E9E200D1124222EF32D3E
:1009C000F0623F2E08C08C3621F4832D8068382ECB
:1009D00002C0883641F4F70193FD859193FF819120
:1009E0007F018111B3CF982F9F7D9554933028F4C8
:1009F0000C5F1F4F9FE399830DC0833631F083371F
:100A000071F0833509F059C021C0F80180818983D4
:100A10000E5F1F4F88248394912C530113C028012B
:100A2000F2E04F0E511CF801A080B18036FE03C0E9
:100A3000692D70E002C06FEF7FEFC5010E94640670
:100A40004C018201F32DFF773F2E16C0280122E0D2
:100A5000420E511CF801A080B18036FE03C0692D02
:100A600070E002C06FEF7FEFC5010E9459064C0194
:100A7000F32DF0683F2E820133FC1BC0822D90E0E5
:100A800088169906B0F4B60180E290E00E946F06E5
:100A90002A94F4CFF50137FC859137FE81915F01EF
:100AA000B60190E00E946F0621102A9421E0821A7C
:100AB00091088114910471F7E8C0843611F08936E9
:100AC00041F5F80137FE07C0608171818281938111
:100AD0000C5F1F4F08C060817181072E000C880BCE
:100AE000990B0E5F1F4FF32DFF763F2E97FF09C026
:100AF00090958095709561957F4F8F4F9F4FF068CF
:100B00003F2E2AE030E0A3010E94AB06882E861813
:100B100045C0853731F4232D2F7EB22E2AE030E0F8
:100B200025C0932D997FB92E8F36C1F018F48835E2
:100B300079F0B5C0803719F0883721F0B0C0E92FBF
:100B4000E061BE2EB4FE0DC0FB2DF460BF2E09C0C7
:100B500034FE0AC0292F2660B22E06C028E030E0FD
:100B600005C020E130E002C020E132E0F801B7FE2C
:100B700007C060817181828193810C5F1F4F06C025
:100B80006081718180E090E00E5F1F4FA3010E94A1
:100B9000AB06882E8618FB2DFF773F2E36FE0DC044
:100BA000232D2E7FA22E891458F434FE0BC032FC64
:100BB00009C0832D8E7EA82E05C0B82CA32C03C09F
:100BC000B82C01C0B92CA4FE0FC0FE01E80DF11D28
:100BD0008081803321F49A2D997EA92E09C0A2FE2E
:100BE00006C0B394B39404C08A2D867809F0B394F8
:100BF000A3FC11C0A0FE06C0B21488F4280C922CED
:100C00009B180EC0B21460F4B60180E290E00E941E
:100C10006F06B394F7CFB21418F42B1802C0982CB7
:100C2000212CA4FE10C0B60180E390E00E946F0664
:100C3000A2FE17C0A1FC03C088E790E002C088E5CF
:100C400090E0B6010CC08A2D867859F0A1FE02C052
:100C50008BE201C080E2A7FC8DE2B60190E00E9429
:100C60006F06891438F4B60180E390E00E946F06A5
:100C70009A94F7CF8A94F301E80DF11D8081B601B3
:100C800090E00E946F068110F5CF222009F442CE39
:100C9000B60180E290E00E946F062A94F6CFF6013A
:100CA0008681978102C08FEF9FEF2B96E2E10C9433
:100CB0002507FC010590615070400110D8F7809520
:100CC00090958E0F9F1F0895FC0161507040019018
:100CD0000110D8F7809590958E0F9F1F08950F9360
:100CE0001F93CF93DF93FB01238121FD03C08FEF7F
:100CF0009FEF2CC022FF16C0468157812481358189
:100D00004217530744F4A081B1819D012F5F3F4FEB
:100D1000318320838C93268137812F5F3F4F378328
:100D2000268314C08B01EC01FB010084F185E02DCA
:100D30000995892BE1F6D80116968D919C9117970C
:100D4000019617969C938E931697CE01DF91CF91C3
:100D50001F910F910895FA01AA27283051F12031EF
:100D600081F1E8946F936E7F6E5F7F4F8F4F9F4F3F
:100D7000AF4FB1E03ED0B4E03CD0670F781F891F81
:100D80009A1FA11D680F791F8A1F911DA11D6A0F4F
:100D9000711D811D911DA11D20D009F468943F9102
:100DA0002AE0269F11243019305D3193DEF6CF0101
:100DB0000895462F4770405D4193B3E00FD0C9F7C7
:100DC000F6CF462F4F70405D4A3318F0495D31FD34
:100DD0004052419302D0A9F7EACFB4E0A695979587
:100DE000879577956795BA95C9F70097610571055D
:100DF00008959B01AC010A2E0694579547953795A7
:100E00002795BA95C9F7620F731F841F951FA01D00
:100E100008952F923F924F925F926F927F928F929E
:100E20009F92AF92BF92CF92DF92EF92FF920F9379
:100E30001F93CF93DF93CDB7DEB7CA1BDB0B0FB683
:100E4000F894DEBF0FBECDBF09942A883988488840
:100E50005F846E847D848C849B84AA84B984C884D6
:100E6000DF80EE80FD800C811B81AA81B981CE0FCD
:100E7000D11D0FB6F894DEBF0FBECDBFED010895B2
:040E8000F894FFCF14
:100E8400537461727465642041444320436F6E74EB
:100E9400726F6C65720A0D0050573A204C2025641D
:0E0EA400205220256420442025640A0D000001
:00000001FF
