:100000000C9434000C9451000C9451000C94510049
:100010000C9451000C9451000C9451000C9451001C
:100020000C9451000C9451000C9451000C947E01DE
:100030000C9451000C9451000C9451000C945100FC
:100040000C9451000C9451000C9451000C945100EC
:100050000C9451000C9451000C9451000C945100DC
:100060000C9451000C94510011241FBECFEFD8E026
:10007000DEBFCDBF11E0A0E0B1E0E4E3FCE002C0F0
:1000800005900D92A432B107D9F721E0A4E2B1E0C6
:1000900001C01D92A338B207E1F70E94A4010C949D
:1000A00018060C940000CF93DF931F92CDB7DEB7F4
:1000B0008AE391E00E946502BE016F5F7F4F8AE391
:1000C00091E00E94BE02882369F089818D3029F475
:1000D0006AE08AE391E00E94E60269818AE391E0A6
:1000E0000E94E6028AE391E00E9465020F90DF9190
:1000F000CF910895CF93DF93CDB7DEB7E2970FB6D8
:10010000F894DEBF0FBECDBF7894A6E2B1E0ECE27A
:10011000F1E088E391E01D9211921192E817F9073E
:10012000D1F785E291E00E94A8018AE391E00E9464
:100130004D0285E1E0E0F1E0DE01119601900D92C3
:100140008A95E1F7BE016F5F7F4F8AE391E00E94DD
:100150001403209A03E010E00F2EF5E2AF2EF1E039
:10016000BF2EF02D0F2EF2E39F2EF02D0E94530094
:10017000F50191820F2EFAE0EF2EF12CF02D0F2ECB
:10018000F0EDCF2EF7E0DF2EF02D0E945300289ADD
:10019000F1E0CF1AD108C9F781E0E81AF10879F740
:1001A0000F2EFAE0EF2EF12CF02D0F2EF0EDCF2ECA
:1001B000F7E0DF2EF02D0E945300289891E0C91A35
:1001C000D108C9F7E1E0EE1AF10879F701501109F9
:1001D00069F6109226012898EAE7F0E080818760AE
:1001E0008083808180688083ECE7F0E08081806498
:1001F000808380818F7780830F2EFCE7CF2ED12CD8
:10020000F02D0F2EFAE7EF2EF12CF02D0F2EF8E740
:100210004F2E512CF02D0F2EF5E16F2EF1E07F2E99
:10022000F02DCE0101965C010E945300F601808101
:10023000807F8083808187608083F70180818064F4
:100240008083808186FF06C00E945300F701808171
:1002500086FDFACFF20100811181F6018081807F55
:100260008083808186608083F701808180648083C1
:10027000808186FF06C00E945300F701808186FDC1
:10028000FACFF201808191819F938F931F930F93F7
:100290007F926F92BF92AF920E942E03B5018AE3C4
:1002A00091E00E9414030E9453000FB6F894DEBF41
:1002B0000FBECDBF0F2EF3E08F2E912CF02D00E45A
:1002C0001FE10E945300289A01501109D1F791E0D3
:1002D000891A9108A1F70F2EFAE08F2E912CF02D9C
:1002E00000E41FE10E945300289801501109D1F742
:1002F000E1E08E1A9108A1F7289896CF1F920F92ED
:100300000FB60F9211242F933F934F935F936F93E8
:100310007F938F939F93AF93BF93EF93FF9385E268
:1003200091E00E94E501FF91EF91BF91AF919F9104
:100330008F917F916F915F914F913F912F910F908E
:100340000FBE0F901F90189584E291E00E947A00F2
:10035000CF93DF93DC01E1E8F0E08081826080836D
:1003600080818A7F8083C0E8D0E088818C7F888309
:1003700080818860808380818F7E808382E080930B
:100380006F0087B18F6387B91C9281E088B99C9117
:10039000292F990F330BF901EE0FFF1FEA0FFB1FF7
:1003A000478150854556544FFD01E20FF31F81816F
:1003B0009A0168E08602200D311D112430938900D6
:1003C00020938800DF91CF910895CF93DF93DC01D4
:1003D0003C9133235CF028B181E090E002C0880FAB
:1003E000991F3A95E2F78095822388B98C918F5FA7
:1003F0008C93863044F548B121E030E0B90102C069
:10040000660F771F8A95E2F7CB01842B88B98C9110
:10041000082E000C990BFC01EE0FFF1FEA0FFB1FCB
:10042000278130852556344FA80FB91F11968C911E
:10043000A90168E08602400D511D112450938900E6
:100440004093880027C08FEF8C93FD013796ED0114
:100450002196BD016D5E7F4F80E090EA2191319140
:1004600049912556344F58E04502200D311D112485
:10047000821B930BE617F70789F790938900809307
:10048000880053968D919C915497019654969C9315
:100490008E935397DF91CF91089528E12093C10067
:1004A0002EE02093C2001092C50029E12093C400E1
:1004B000FC0111A210A213A212A2EC5BFF4F118249
:1004C000108232961182108208952091C00025FF7B
:1004D0001BC0FC0122A133A140A151A12417350763
:1004E00099F0E20FF31F20812093C600FC0122A1A6
:1004F00033A12F5F3F4F203231051CF433A322A3D9
:1005000003C0FC0113A212A22091C0002223ACF56B
:10051000FC01EC5BFF4F20813181A9014F5F5F4FF0
:10052000403251053CF03296608171816115710550
:1005300009F50895FC01EA5BFF4F60817181461760
:100540005707D9F06091C600FC01E20FF31F64A3C6
:10055000FC01EC5BFF4F5183408308954091C6003E
:10056000FC01E20FF31F44A3FC01EC5BFF4F11827F
:10057000108208954617570789F70895FC01EA5B32
:10058000FF4F2081318132974081518124173507F7
:10059000D9F0FC01E20FF31F24A1FB012083FC0131
:1005A000EA5BFF4F208131812F5F3F4F20323105C1
:1005B00024F43183208381E00895FC01EA5BFF4F3E
:1005C0001182108281E0089580E00895FC0180A1ED
:1005D00091A19C012F5F3F4F2032310534F042A1A1
:1005E00053A141155105E1F40DC042A153A12417B7
:1005F000350751F0DF01A80FB91F6C9331A320A379
:1006000081E0089580E0089580E0089580E00895F5
:10061000DF01A80FB91F6C9311A210A281E0089509
:1006200024173507A9F7F2CF0F931F93CF93DF93CA
:10063000EB016881662361F08C01219602C088235A
:1006400041F0C8010E94E60269916111F8CF01C032
:1006500081E0DF91CF911F910F910895AEE0B0E05E
:10066000E4E3F3E00C94EF050D891E8986E08C83AA
:100670001A8309838FEF9FE79E838D83AE01475EC8
:100680005F4F6F89788DCE0101960E945003EF81F4
:10069000F885E00FF11F10822E96E4E00C940B0613
:1006A000ABE0B0E0E6E5F3E00C94E1056C017B0122
:1006B0008A01FC0117821682838181FFCCC1CE01A1
:1006C00001963C01F6019381F70193FD859193FF1B
:1006D00081917F01882309F4BAC1853239F493FDF1
:1006E000859193FF81917F01853229F4B60190E0D5
:1006F0000E944705E7CF912C212C312CFFE1F31507
:10070000D8F08B3279F038F4803279F08332A1F46A
:10071000232D20611DC08D3261F0803369F4232DBB
:10072000216016C0832D8260382EE32DE4603E2EBA
:100730002AC0F32DF8601DC037FC2DC020ED280F16
:100740002A3040F08E32B9F436FC81C1232D20646A
:10075000322E19C036FE06C08AE0989E200D112464
:10076000922E11C0EAE02E9E200D1124222EF32D90
:10077000F0623F2E08C08C3621F4832D8068382E1D
:1007800002C0883641F4F70193FD859193FF819172
:100790007F018111B3CF982F9F7D9554933028F41A
:1007A0000C5F1F4F9FE399830DC0833631F0833771
:1007B00071F0833509F059C021C0F8018081898327
:1007C0000E5F1F4F88248394912C530113C028017E
:1007D000F2E04F0E511CF801A080B18036FE03C03C
:1007E000692D70E002C06FEF7FEFC5010E943C05EC
:1007F0004C018201F32DFF773F2E16C0280122E025
:10080000420E511CF801A080B18036FE03C0692D54
:1008100070E002C06FEF7FEFC5010E9431054C010F
:10082000F32DF0683F2E820133FC1BC0822D90E037
:1008300088169906B0F4B60180E290E00E94470560
:100840002A94F4CFF50137FC859137FE81915F0141
:10085000B60190E00E94470521102A9421E0821AF7
:1008600091088114910471F7E8C0843611F089363B
:1008700041F5F80137FE07C0608171818281938163
:100880000C5F1F4F08C060817181072E000C880B20
:10089000990B0E5F1F4FF32DFF763F2E97FF09C078
:1008A00090958095709561957F4F8F4F9F4FF06821
:1008B0003F2E2AE030E0A3010E948305882E86188F
:1008C00045C0853731F4232D2F7EB22E2AE030E04B
:1008D00025C0932D997FB92E8F36C1F018F4883535
:1008E00079F0B5C0803719F0883721F0B0C0E92F12
:1008F000E061BE2EB4FE0DC0FB2DF460BF2E09C01A
:1009000034FE0AC0292F2660B22E06C028E030E04F
:1009100005C020E130E002C020E132E0F801B7FE7E
:1009200007C060817181828193810C5F1F4F06C077
:100930006081718180E090E00E5F1F4FA3010E94F3
:100940008305882E8618FB2DFF773F2E36FE0DC0BF
:10095000232D2E7FA22E891458F434FE0BC032FCB6
:1009600009C0832D8E7EA82E05C0B82CA32C03C0F1
:10097000B82C01C0B92CA4FE0FC0FE01E80DF11D7A
:100980008081803321F49A2D997EA92E09C0A2FE80
:1009900006C0B394B39404C08A2D867809F0B3944A
:1009A000A3FC11C0A0FE06C0B21488F4280C922C3F
:1009B0009B180EC0B21460F4B60180E290E00E9471
:1009C0004705B394F7CFB21418F42B1802C0982C33
:1009D000212CA4FE10C0B60180E390E00E944705E0
:1009E000A2FE17C0A1FC03C088E790E002C088E522
:1009F00090E0B6010CC08A2D867859F0A1FE02C0A5
:100A00008BE201C080E2A7FC8DE2B60190E00E947B
:100A10004705891438F4B60180E390E00E94470549
:100A20009A94F7CF8A94F301E80DF11D8081B60105
:100A300090E00E9447058110F5CF222009F442CEB4
:100A4000B60180E290E00E9447052A94F6CFF601B5
:100A50008681978102C08FEF9FEF2B96E2E10C9485
:100A6000FD05FC010590615070400110D8F780959C
:100A700090958E0F9F1F0895FC016150704001906A
:100A80000110D8F7809590958E0F9F1F08950F93B2
:100A90001F93CF93DF93FB01238121FD03C08FEFD1
:100AA0009FEF2CC022FF16C04681578124813581DB
:100AB0004217530744F4A081B1819D012F5F3F4F3E
:100AC000318320838C93268137812F5F3F4F37837B
:100AD000268314C08B01EC01FB010084F185E02D1D
:100AE0000995892BE1F6D80116968D919C9117975F
:100AF000019617969C938E931697CE01DF91CF9116
:100B00001F910F910895FA01AA27283051F1203141
:100B100081F1E8946F936E7F6E5F7F4F8F4F9F4F91
:100B2000AF4FB1E03ED0B4E03CD0670F781F891FD3
:100B30009A1FA11D680F791F8A1F911DA11D6A0FA1
:100B4000711D811D911DA11D20D009F468943F9154
:100B50002AE0269F11243019305D3193DEF6CF0153
:100B60000895462F4770405D4193B3E00FD0C9F719
:100B7000F6CF462F4F70405D4A3318F0495D31FD86
:100B80004052419302D0A9F7EACFB4E0A6959795D9
:100B9000879577956795BA95C9F7009761057105AF
:100BA00008959B01AC010A2E0694579547953795F9
:100BB0002795BA95C9F7620F731F841F951FA01D53
:100BC00008952F923F924F925F926F927F928F92F1
:100BD0009F92AF92BF92CF92DF92EF92FF920F93CC
:100BE0001F93CF93DF93CDB7DEB7CA1BDB0B0FB6D6
:100BF000F894DEBF0FBECDBF09942A883988488893
:100C00005F846E847D848C849B84AA84B984C88428
:100C1000DF80EE80FD800C811B81AA81B981CE0F1F
:100C2000D11D0FB6F894DEBF0FBECDBFED01089504
:040C3000F894FFCF66
:100C34005374617274656420414443205465737431
:100C440065720A0D004144433A202575202025751C
:040C54000A0D000085
:00000001FF
