S0110000436F6E74726F6C65722E737265635B
S11300000C943C000C9459000C9459000C94590025
S11300100C9459000C9459000C9459000C945900F8
S11300200C9459000C9459000C9459000C940E0231
S11300300C9459000C9459000C9459000C945900D8
S11300400C9459000C9459000C9459000C945900C8
S11300500C9459000C9459000C9459000C945900B8
S11300600C9459000C945900C302B502A702D202A1
S1130070E802E102F802EF0211241FBECFEFD8E03C
S1130080DEBFCDBF11E0A0E0B1E0EEE8FFE002C0CA
S113009005900D92AE33B107D9F721E0AEE3B1E09C
S11300A001C01D92A63BB207E1F70E943D020C94E9
S11300B0C5070C940000FC018AB18F738AB98BB117
S11300C0806C8BB985B78F7E85BF148215821182AF
S11300D01082138212820895FC0185814F9B11C006
S11300E0811103C01382128205C08281938101961B
S11300F093838283828193810A97B4F0158281E08D
S113010010C0882319F01382128205C08281938162
S1130110019693838283828193810A972CF081E0F4
S1130120858387831382128284814E9B11C081113F
S113013003C01182108205C0808191810196918350
S11301408083808191810A97B4F0148281E010C089
S1130150882319F01182108205C080819181019653
S113016091838083808191810A972CF081E084833C
S11301708683118210820895CF93DF931F92CDB7A7
S1130180DEB78DE691E00E94B403BE016F5F7F4F3E
S11301908DE691E00E94FF03882369F089818D3008
S11301A029F46AE08DE691E00E94220469818DE6DB
S11301B091E00E9422048DE691E00E94B4030F9026
S11301C0DF91CF910895EF92FF920F931F93CF93F6
S11301D0DF93209AC3E0D0E00E94BC000AE010E064
S11301E030EDE32E37E0F32E0E94BC00289A81E024
S11301F0E81AF108C9F70150110991F70AE010E073
S113020020EDE22E27E0F22E0E94BC00289881E027
S1130210E81AF108C9F70150110991F72197E1F69D
S1130220C3E0D0E00E94BC000AE010E090EDE92EAB
S113023097E0F92E0E94BC00289A81E0E81AF108A0
S1130240C9F70150110991F70AE010E080EDE82E9A
S113025087E0F82E0E94BC00289881E0E81AF10893
S1130260C9F70150110991F72197E1F62898DF9118
S1130270CF911F910F91FF90EF900895CF93DF934B
S1130280CDB7DEB7E2970FB6F894DEBF0FBECDBF91
S11302907894A9E5B1E0EFE5F1E01D921192119295
S11302A021E0EB36F207C9F788E591E00E940103EB
S11302B089E491E00E9441028DE691E00E949C0352
S11302C080E591E00E94580481E491E00E945B0083
S11302D01092400110923F011F9280E88F931F9269
S11302E080E48F931F9281E08F9380E091E09F934D
S11302F08F93CE0101966C019F938F930E94DB0430
S1130300B6018DE691E00E9443040E94E3000FB61B
S1130310F894DEBF0FBECDBF0AE010E0E12CF12C53
S11303209924939481E2A82E81E0B82E0E94BC0007
S113033080E591E00E946E0481E491E00E946C00EB
S113034080913F0190914001081719077CF41092A5
S1130350400110923F0185B1892585B9409157012B
S11303606091560189E491E00E9442028091480123
S1130370882359F01092480180914601882329F07E
S11303800E31110514F40F5F1F4F8091470188232C
S113039059F01092470180914501882329F00330D8
S11303A0110514F00150110980914E0180935901F7
S11303B090914D0190935A012FEFE21AF20A24EC26
S11303C0E21629E0F20609F0B1CF1F930F932091B2
S11303D04F01422F022E000C550B5F932F93292FB0
S11303E0092E000C330B3F939F93282F082E000CEB
S11303F0330B3F938F93BF92AF92DF92CF920E94C1
S1130400DB04B6018DE691E00E9443040FB6F89434
S1130410DEBF0FBECDBFE12CF12C88CF1F920F920F
S11304200FB60F9211242F933F934F935F936F93C3
S11304307F938F939F93AF93BF93EF93FF9388E53D
S113044091E00E943D0380913F019091400101960B
S11304509093400180933F01FF91EF91BF91AF9141
S11304609F918F917F916F915F914F913F912F91C8
S11304700F900FBE0F901F9018958EE391E00E948D
S11304803E010895DC0183E1860F71E0873208F0B4
S113049070E051E083E1840F873208F050E0772365
S11304A031F0552321F016961C9216973EC091E028
S11304B064310CF490E031E044310CF430E09923E1
S11304C021F0332311F085E02DC021E04D3E0CF0E6
S11304D020E0992321F0222311F087E023C081E05A
S11304E06D3E0CF080E0332321F0882311F086E088
S11304F019C0222321F0882311F088E013C0772348
S113050041F0332311F083E00DC0222311F084E085
S113051009C0552341F2992311F081E003C08823D7
S113052011F282E016968C9316971696EC91169714
S11305304E2FEE0F550B660B770BFA013197E8300F
S1130540F10508F05DC0EC5CFF4F0C94D5041596E2
S11305508C91159714969C9114978A370CF050C07F
S11305609A370CF04DC09F5F19C014969C91149754
S113057015968C9115979A370CF042C088380CF474
S11305803FC09F5F1AC014969C91149715968C9146
S113059015979838ACF18A379CF5915014969C9332
S11305A014971BC014969C91149715968C911597CB
S11305B0983834F1883824F1915014969C93149708
S11305C01CC014968C9114978A37D4F48F5F0DC095
S11305D015968C9115978A379CF48F5F0FC01496EB
S11305E08C911497883864F0815014968C930895F4
S11305F015968C91159788381CF0815015968C931C
S11306000895CF93DF93FC01A1E8B0E08C91826060
S11306108C938C918A7F8C93C0E8D0E088818C7F06
S113062088838C9188608C938C918F7E8C9382E0EC
S113063080936F0087B18F6387B9108281E088B996
S11306402081022E000C330BDF01A20FB31F119681
S11306504C91220F331FE20FF31F8781908585563B
S1130660944F28E04202800D911D1124909389003B
S113067080938800DF91CF910895CF93DF93FC019D
S1130680308137FD0AC028B181E090E001C0880FB5
S11306903A95EAF78095822388B920812F5F2083D9
S11306A0263024F538B181E090E001C0880F2A9506
S11306B0EAF7832B88B98081082E000C990BDF019F
S11306C0A80FB91F11962C91880F991FE80FF91FD5
S11306D0878190858556944F38E02302800D911DC3
S11306E01124909389008093880023C08FEF808326
S11306F0DF011796EF012196AF014D5E5F4F20E0B9
S113070030EA8D919D9169918556944F78E0670206
S1130710800D911D1124281B390B4A175B0789F79B
S11307203093890020938800838994890196948B5F
S1130730838BDF91CF91089528E12093C1002EE0AF
S11307402093C2001092C50029E12093C400FC014B
S113075011A210A213A212A2EC5BFF4F118210820D
S11307603296118210820895CF93DF93FC01809119
S1130770C00085FF18C082A193A120A131A18217D6
S1130780930789F0DF01A80FB91F8C918093C600ED
S113079082A193A10196803291051CF493A382A3B4
S11307A002C013A212A28091C00087FF25C0DF01FE
S11307B0AC5BBF4F8D919C911197EF01CA5BDF4FEA
S11307C08F31910524F028813981232BA9F09C01D4
S11307D02F5F3F4F488159812417350769F04091B5
S11307E0C600E80FF91F44A3203231051CF42D93F1
S11307F03C9302C01D921C92DF91CF910895FC019D
S1130800EA5BFF4F20813181DC01AC5BBF4F4D912E
S11308105C9124173507A1F0DC01A20FB31F949655
S11308208C91DB018C9380819181019680329105BA
S11308301CF49183808302C01182108281E00895A8
S113084080E00895FC0180A191A142A153A18F31C0
S113085091051CF041155105A1F09C012F5F3F4FFC
S11308602417350771F0DF01A80FB91F6C932032EC
S113087031051CF431A320A302C011A210A281E00F
S1130880089580E008950F931F93CF93DF938C0115
S1130890EB0181E06991662331F0882321F0C801DE
S11308A00E942204F7CFDF91CF911F910F910895F9
S11308B0DC01EAE7F0E09081976090839081906892
S11308C09083ECE7F0E090819064908390819F772F
S11308D0908381E08C9315961C920895FC0180818D
S11308E0813089F480917C00807F80937C008091AA
S11308F07C00876080937C0080917A008064809380
S11309007A0082E080838081823061F480917A0071
S113091086FD08C080917800909179009483838348
S113092083E080838081833089F480917C00807FA0
S113093080937C0080917C00866080937C00809111
S11309407A00806480937A0084E08083808184309C
S113095059F580917A0086FD27C0809178009091A6
S1130960790092838183875E91408038910514F0E9
S11309708FE705C081382FEF92070CF481E8868356
S11309802381348181EF91E0821B930B80389105A0
S113099014F08FE705C081382FEF92070CF481E83B
S11309A0878381E0808385830895EE0FFF1F059080
S11309B0F491E02D0994AEE0B0E0E1EEF4E00C94A3
S11309C09C070D891E8986E08C831A8309838FEF27
S11309D09FE79E838D83AE01475E5F4F6F89788D5D
S11309E0CE0101960E94FD04EF81F885E00FF11F0E
S11309F010822E96E4E00C94B807ABE0B0E0E3E09C
S1130A00F5E00C948E076C017B018A01FC011782CE
S1130A101682838181FFCCC1CE0101963C01F6018F
S1130A209381F70193FD859193FF81917F01882341
S1130A3009F4BAC1853239F493FD859193FF81910C
S1130A407F01853229F4B60190E00E94F406E7CFD5
S1130A50912C212C312CFFE1F315D8F08B3279F055
S1130A6038F4803279F08332A1F4232D20611DC043
S1130A708D3261F0803369F4232D216016C0832DFB
S1130A808260382EE32DE4603E2E2AC0F32DF860F8
S1130A901DC037FC2DC020ED280F2A3040F08E32C7
S1130AA0B9F436FC81C1232D2064322E19C036FEE0
S1130AB006C08AE0989E200D1124922E11C0EAE00F
S1130AC02E9E200D1124222EF32DF0623F2E08C0FD
S1130AD08C3621F4832D8068382E02C0883641F488
S1130AE0F70193FD859193FF81917F018111B3CF2C
S1130AF0982F9F7D9554933028F40C5F1F4F9FE3EC
S1130B0099830DC0833631F0833771F0833509F052
S1130B1059C021C0F801808189830E5F1F4F88244A
S1130B208394912C530113C02801F2E04F0E511C01
S1130B30F801A080B18036FE03C0692D70E002C0C8
S1130B406FEF7FEFC5010E94E9064C018201F32D8E
S1130B50FF773F2E16C0280122E0420E511CF801F7
S1130B60A080B18036FE03C0692D70E002C06FEF33
S1130B707FEFC5010E94DE064C01F32DF0683F2E85
S1130B80820133FC1BC0822D90E088169906B0F4D4
S1130B90B60180E290E00E94F4062A94F4CFF501B5
S1130BA037FC859137FE81915F01B60190E00E9488
S1130BB0F40621102A9421E0821A910881149104E8
S1130BC071F7E8C0843611F0893641F5F80137FE33
S1130BD007C060817181828193810C5F1F4F08C0BF
S1130BE060817181072E000C880B990B0E5F1F4FDB
S1130BF0F32DFF763F2E97FF09C090958095709551
S1130C0061957F4F8F4F9F4FF0683F2E2AE030E071
S1130C10A3010E943007882E861845C0853731F419
S1130C20232D2F7EB22E2AE030E025C0932D997F0C
S1130C30B92E8F36C1F018F4883579F0B5C08037F5
S1130C4019F0883721F0B0C0E92FE061BE2EB4FE60
S1130C500DC0FB2DF460BF2E09C034FE0AC0292F3D
S1130C602660B22E06C028E030E005C020E130E066
S1130C7002C020E132E0F801B7FE07C06081718153
S1130C80828193810C5F1F4F06C06081718180E077
S1130C9090E00E5F1F4FA3010E943007882E861834
S1130CA0FB2DFF773F2E36FE0DC0232D2E7FA22E67
S1130CB0891458F434FE0BC032FC09C0832D8E7E97
S1130CC0A82E05C0B82CA32C03C0B82C01C0B92C85
S1130CD0A4FE0FC0FE01E80DF11D8081803321F4D4
S1130CE09A2D997EA92E09C0A2FE06C0B394B3948E
S1130CF004C08A2D867809F0B394A3FC11C0A0FE29
S1130D0006C0B21488F4280C922C9B180EC0B2149E
S1130D1060F4B60180E290E00E94F406B394F7CF49
S1130D20B21418F42B1802C0982C212CA4FE10C065
S1130D30B60180E390E00E94F406A2FE17C0A1FC75
S1130D4003C088E790E002C088E590E0B6010CC0DB
S1130D508A2D867859F0A1FE02C08BE201C080E2A0
S1130D60A7FC8DE2B60190E00E94F406891438F4E1
S1130D70B60180E390E00E94F4069A94F7CF8A9437
S1130D80F301E80DF11D8081B60190E00E94F406A4
S1130D908110F5CF222009F442CEB60180E290E022
S1130DA00E94F4062A94F6CFF6018681978102C048
S1130DB08FEF9FEF2B96E2E10C94AA07FC010590BC
S1130DC0615070400110D8F7809590958E0F9F1F49
S1130DD00895FC016150704001900110D8F780958E
S1130DE090958E0F9F1F08950F931F93CF93DF93BA
S1130DF0FB01238121FD03C08FEF9FEF2CC022FF55
S1130E0016C046815781248135814217530744F423
S1130E10A081B1819D012F5F3F4F318320838C934B
S1130E20268137812F5F3F4F3783268314C08B0180
S1130E30EC01FB010084F185E02D0995892BE1F695
S1130E40D80116968D919C911797019617969C93AD
S1130E508E931697CE01DF91CF911F910F91089534
S1130E60FA01AA27283051F1203181F1E8946F93D7
S1130E706E7F6E5F7F4F8F4F9F4FAF4FB1E03ED07D
S1130E80B4E03CD0670F781F891F9A1FA11D680F1B
S1130E90791F8A1F911DA11D6A0F711D811D911D4E
S1130EA0A11D20D009F468943F912AE0269F1124C3
S1130EB03019305D3193DEF6CF010895462F477027
S1130EC0405D4193B3E00FD0C9F7F6CF462F4F7082
S1130ED0405D4A3318F0495D31FD4052419302D0E0
S1130EE0A9F7EACFB4E0A695979587957795679586
S1130EF0BA95C9F700976105710508959B01AC0186
S1130F000A2E06945795479537952795BA95C9F7AC
S1130F10620F731F841F951FA01D08952F923F9287
S1130F204F925F926F927F928F929F92AF92BF92F5
S1130F30CF92DF92EF92FF920F931F93CF93DF93A1
S1130F40CDB7DEB7CA1BDB0B0FB6F894DEBF0FBEFE
S1130F50CDBF09942A88398848885F846E847D844B
S1130F608C849B84AA84B984C884DF80EE80FD804D
S1130F700C811B81AA81B981CE0FD11D0FB6F894C3
S1110F80DEBF0FBECDBFED010895F894FFCF84
S1130F8E537461727465642041444320436F6E74DC
S1130F9E726F6C65722025642025642025640A0D09
S1130FAE0050573A204C20253364205220253364B8
S1110FBE2044202532642054202532640D0086
S9030000FC
