S0110000436F6E74726F6C65722E737265635B
S11300000C9434000C9451000C9451000C94510045
S11300100C9451000C9451000C9451000C94510018
S11300200C9451000C9451000C9451000C946401F4
S11300300C9451000C9451000C9451000C945100F8
S11300400C9451000C9451000C9451000C945100E8
S11300500C9451000C9451000C9451000C945100D8
S11300600C9451000C94510011241FBECFEFD8E022
S1130070DEBFCDBF11E0A0E0B1E0E0EBFBE002C0E9
S113008005900D92A232B107D9F721E0A2E2B1E0C6
S113009001C01D92A138B207E1F70E948A010C94B5
S11300A0D6050C940000CF93DF931F92CDB7DEB733
S11300B088E391E00E944102BE016F5F7F4F88E3B5
S11300C091E00E948C02882369F089818D3029F4A3
S11300D06AE088E391E00E94AF02698188E391E0DD
S11300E00E94AF0288E391E00E9441020F90DF91E9
S11300F0CF910895CF93DF93CDB7DEB7E2970FB6D4
S1130100F894DEBF0FBECDBF7894A4E2B1E0EAE27A
S1130110F1E01D921192119281E0E633F807C9F7DC
S113012083E291E00E948E0188E391E00E9429021B
S113013060E071E08E010F5F1F4FC8010E94E5026D
S1130140B80188E391E00E94D002209AF3E0EF2EF8
S1130150F12CA2E39A2E0E94530090922401EAE02B
S1130160CE2ED12C70EDA72E77E0B72E0E9453002F
S1130170289A91E0A91AB108C9F781E0C81AD108F0
S113018089F76AE0C62ED12C50EDA52E57E0B52E86
S11301900E945300289891E0A91AB108C9F781E098
S11301A0C81AD10889F791E0E91AF108A1F610926A
S11301B02401289880917A00876080937A00809146
S11301C07A00806880937A0080917C0080648093B8
S11301D07C0080917C008F7780937C0043E1A42E87
S11301E041E0B42E0E94530080917C00807F809374
S11301F07C0080917C00876080937C0080917A00F1
S1130200806480937A0080917A0086FF03C00E9404
S11302105300F9CFE0907800F090790080917C0051
S1130220807F80937C0080917C00866080937C003A
S113023080917A00806480937A0080917A0086FFAE
S113024003C00E945300F9CF809178009091790007
S11302509F938F93FF92EF92BF92AF921F930F934E
S11302600E94EC02B80188E391E00E94D0020E944F
S113027053000FB6F894DEBF0FBECDBF33E0E32EBC
S1130280F12C20E4C22E2FE1D22E0E945300289A92
S113029091E0C91AD108C9F781E0E81AF10889F791
S11302A09AE0E92EF12C80E4C82E8FE1D82E0E942A
S11302B05300289891E0C91AD108C9F781E0E81AD7
S11302C0F10889F728988ECF1F920F920FB60F92DC
S11302D011242F933F934F935F936F937F938F9347
S11302E09F93AF93BF93EF93FF9383E291E00E94B8
S11302F0CA01FF91EF91BF91AF919F918F917F912F
S11303006F915F914F913F912F910F900FBE0F907E
S11303101F90189582E291E00E947A00CF93DF93B8
S1130320FC01A1E8B0E08C9182608C938C918A7F6F
S11303308C93C0E8D0E088818C7F88838C9188601E
S11303408C938C918F7E8C9382E080936F0087B125
S11303508F6387B9108281E088B92081022E000C56
S1130360330BDF01A20FB31F11964C91220F331FE1
S1130370E20FF31F878190858556944F28E042024F
S1130380800D911D11249093890080938800DF9142
S1130390CF910895CF93DF93FC01308137FD0AC0DC
S11303A028B181E090E001C0880F3A95EAF7809582
S11303B0822388B920812F5F2083263024F538B129
S11303C081E090E001C0880F2A95EAF7832B88B971
S11303D08081082E000C990BDF01A80FB91F11961C
S11303E02C91880F991FE80FF91F878190858556F6
S11303F0944F38E02302800D911D112490938900BD
S11304008093880023C08FEF8083DF011796EF016C
S11304102196AF014D5E5F4F20E030EA8D919D91B2
S113042069918556944F78E06702800D911D1124DF
S1130430281B390B4A175B0789F7309389002093EF
S11304408800838994890196948B838BDF91CF9163
S1130450089528E12093C1002EE02093C200109259
S1130460C50029E12093C400FC0111A210A213A22B
S113047012A2EC5BFF4F118210823296118210821D
S11304800895CF93DF93FC018091C00085FF18C0CD
S113049082A193A120A131A18217930789F0DF01E2
S11304A0A80FB91F8C918093C60082A193A10196D5
S11304B0803291051CF493A382A302C013A212A25A
S11304C08091C00087FF25C0DF01AC5BBF4F8D91D9
S11304D09C911197EF01CA5BDF4F8F31910524F096
S11304E028813981232BA9F09C012F5F3F4F48813C
S11304F059812417350769F04091C600E80FF91FA8
S113050044A3203231051CF42D933C9302C01D9268
S11305101C92DF91CF910895FC01EA5BFF4F20818B
S11305203181DC01AC5BBF4F4D915C9124173507E1
S1130530A1F0DC01A20FB31F94968C91DB018C9384
S1130540808191810196803291051CF4918380838E
S113055002C01182108281E0089580E00895FC01B8
S113056080A191A142A153A18F3191051CF04115A5
S11305705105A1F09C012F5F3F4F2417350771F0FF
S1130580DF01A80FB91F6C93203231051CF431A38D
S113059020A302C011A210A281E0089580E0089572
S11305A00F931F93CF93DF938C01EB0181E069914B
S11305B0662331F0882321F0C8010E94AF02F7CFEF
S11305C0DF91CF911F910F910895FB01DC01019000
S11305D00D920020E1F70895AEE0B0E0E2EFF2E022
S11305E00C94AD050D891E8986E08C831A830983DA
S11305F08FEF9FE79E838D83AE01475E5F4F6F89C8
S1130600788DCE0101960E940E03EF81F885E00FEC
S1130610F11F10822E96E4E00C94C905ABE0B0E023
S1130620E4E1F3E00C949F056C017B018A01FC0179
S113063017821682838181FFCCC1CE0101963C01D1
S1130640F6019381F70193FD859193FF81917F01D9
S1130650882309F4BAC1853239F493FD859193FF57
S113066081917F01853229F4B60190E00E9405054D
S1130670E7CF912C212C312CFFE1F315D8F08B32EC
S113068079F038F4803279F08332A1F4232D20619B
S11306901DC08D3261F0803369F4232D216016C0B2
S11306A0832D8260382EE32DE4603E2E2AC0F32D84
S11306B0F8601DC037FC2DC020ED280F2A3040F013
S11306C08E32B9F436FC81C1232D2064322E19C038
S11306D036FE06C08AE0989E200D1124922E11C089
S11306E0EAE02E9E200D1124222EF32DF0623F2EDF
S11306F008C08C3621F4832D8068382E02C08836D9
S113070041F4F70193FD859193FF81917F0181115C
S1130710B3CF982F9F7D9554933028F40C5F1F4FCF
S11307209FE399830DC0833631F0833771F08335AD
S113073009F059C021C0F801808189830E5F1F4FE1
S113074088248394912C530113C02801F2E04F0EA6
S1130750511CF801A080B18036FE03C0692D70E001
S113076002C06FEF7FEFC5010E94FA044C018201C1
S1130770F32DFF773F2E16C0280122E0420E511CB4
S1130780F801A080B18036FE03C0692D70E002C07C
S11307906FEF7FEFC5010E94EF044C01F32DF06869
S11307A03F2E820133FC1BC0822D90E088169906EF
S11307B0B0F4B60180E290E00E9405052A94F4CFDB
S11307C0F50137FC859137FE81915F01B60190E018
S11307D00E94050521102A9421E0821A91088114AF
S11307E0910471F7E8C0843611F0893641F5F801B7
S11307F037FE07C060817181828193810C5F1F4F36
S113080008C060817181072E000C880B990B0E5F64
S11308101F4FF32DFF763F2E97FF09C090958095CB
S1130820709561957F4F8F4F9F4FF0683F2E2AE060
S113083030E0A3010E944105882E861845C0853703
S113084031F4232D2F7EB22E2AE030E025C0932DE3
S1130850997FB92E8F36C1F018F4883579F0B5C078
S1130860803719F0883721F0B0C0E92FE061BE2E3F
S1130870B4FE0DC0FB2DF460BF2E09C034FE0AC0C7
S1130880292F2660B22E06C028E030E005C020E102
S113089030E002C020E132E0F801B7FE07C0608119
S11308A07181828193810C5F1F4F06C060817181C9
S11308B080E090E00E5F1F4FA3010E944105882E47
S11308C08618FB2DFF773F2E36FE0DC0232D2E7F7D
S11308D0A22E891458F434FE0BC032FC09C0832DB7
S11308E08E7EA82E05C0B82CA32C03C0B82C01C042
S11308F0B92CA4FE0FC0FE01E80DF11D80818033E8
S113090021F49A2D997EA92E09C0A2FE06C0B394A3
S1130910B39404C08A2D867809F0B394A3FC11C063
S1130920A0FE06C0B21488F4280C922C9B180EC0AA
S1130930B21460F4B60180E290E00E940505B3941D
S1130940F7CFB21418F42B1802C0982C212CA4FE53
S113095010C0B60180E390E00E940505A2FE17C016
S1130960A1FC03C088E790E002C088E590E0B601EE
S11309700CC08A2D867859F0A1FE02C08BE201C01A
S113098080E2A7FC8DE2B60190E00E94050589147F
S113099038F4B60180E390E00E9405059A94F7CFFD
S11309A08A94F301E80DF11D8081B60190E00E9464
S11309B005058110F5CF222009F442CEB60180E26C
S11309C090E00E9405052A94F6CFF601868197816E
S11309D002C08FEF9FEF2B96E2E10C94BB05FC0164
S11309E00590615070400110D8F7809590958E0F56
S11309F09F1F0895FC016150704001900110D8F7C9
S1130A00809590958E0F9F1F08950F931F93CF93FA
S1130A10DF93FB01238121FD03C08FEF9FEF2CC0E7
S1130A2022FF16C04681578124813581421753071E
S1130A3044F4A081B1819D012F5F3F4F3183208316
S1130A408C93268137812F5F3F4F3783268314C0D1
S1130A508B01EC01FB010084F185E02D0995892BC4
S1130A60E1F6D80116968D919C91179701961796E9
S1130A709C938E931697CE01DF91CF911F910F9186
S1130A800895FA01AA27283051F1203181F1E89420
S1130A906F936E7F6E5F7F4F8F4F9F4FAF4FB1E06D
S1130AA03ED0B4E03CD0670F781F891F9A1FA11D68
S1130AB0680F791F8A1F911DA11D6A0F711D811D69
S1130AC0911DA11D20D009F468943F912AE0269F2E
S1130AD011243019305D3193DEF6CF010895462F8D
S1130AE04770405D4193B3E00FD0C9F7F6CF462F6E
S1130AF04F70405D4A3318F0495D31FD40524193D7
S1130B0002D0A9F7EACFB4E0A69597958795779593
S1130B106795BA95C9F700976105710508959B011A
S1130B20AC010A2E06945795479537952795BA95A3
S1130B30C9F7620F731F841F951FA01D08952F927C
S1130B403F924F925F926F927F928F929F92AF9259
S1130B50BF92CF92DF92EF92FF920F931F93CF93A6
S1130B60DF93CDB7DEB7CA1BDB0B0FB6F894DEBF3D
S1130B700FBECDBF09942A88398848885F846E8463
S1130B807D848C849B84AA84B984C884DF80EE80AD
S1130B90FD800C811B81AA81B981CE0FD11D0FB6B6
S1130BA0F894DEBF0FBECDBFED010895F894FFCFDA
S1130BB053746172746564204144432054657374B2
S1130BC00A0D004144433A202575202025750A0D5D
S1050BD000001F
S9030000FC
