:100000000C943D000C945A000C945A000C945A0025
:100010000C945A000C945A000C945A000C945A00F8
:100020000C945A000C945A000C945A000C94B5028B
:100030000C945A000C945A000C945A000C945A00D8
:100040000C945A000C945A000C945A000C945A00C8
:100050000C945A000C945A000C945A000C945A00B8
:100060000C945A000C945A00B500D400ED00150110
:1000700042015F017C01A501C70111241FBECFEF22
:10008000D8E0DEBFCDBF11E0A0E0B1E0EAEDF8E0DE
:1000900002C005900D92AE31B107D9F721E0AEE173
:1000A000B1E001C01D92A239B207E1F70E94DB0264
:1000B0000C946B040C940000FC01718360835383E7
:1000C00042831586148611860895DA0111961C92D2
:1000D0001E92FB01349621E030E0829190ED980F62
:1000E0009A3090F490E0C097829FA001839F500DBA
:1000F000929F500D11248D919C911197840F951F03
:1001000011969C938E9315C09FEB980F9630E0F458
:1001100090E0C797829FA001839F500D929F500D42
:1001200011248D919C911197840F951F11969C938A
:100130008E9322953295307F3227207F3227E61723
:10014000F70759F681E0089580E00895CF93DF9393
:10015000DC011C96ED91FC911D97E930F10508F04A
:100160001EC1EC5CFF4F0C946504633439F481E0EC
:1001700090E01D969C938E931C9711C1613439F4C5
:1001800085E090E01D969C938E931C9708C16D307E
:1001900009F405C16A3009F402C188E090E01D96B7
:1001A0009C938E931C97FBC08FEC860F863070F467
:1001B00070E0615371091F967C936E931E9782E0E5
:1001C00090E01D969C938E931C97E9C088E090E088
:1001D0001D969C938E931C97E2C080ED860F8A300B
:1001E00060F46295607F50966C93509783E090E046
:1001F0001D969C938E931C97D2C08FEB860F8630F2
:1002000068F4675F6295607F50966C93509783E0C7
:1002100090E01D969C938E931C97C1C088E090E05F
:100220001D969C938E931C97BAC080ED860F8A30E2
:1002300078F450968C9150978053680F50966C9339
:10024000509784E090E01D969C938E931C97A7C0D6
:100250008FEB860F863078F450968C9150978753A9
:10026000680F50966C93509784E090E01D969C9395
:100270008E931C9794C088E090E01D969C938E937B
:100280001C978DC06D3011F06A3091F450962C910E
:100290005097ED91FC9111971E968D919C911F970F
:1002A000E80FF91F20831D961C921E921C9777C0A1
:1002B00088E090E01D969C938E931C9770C08FEC05
:1002C000860F863090F470E06153710952967C93EA
:1002D0006E93519786E090E01D969C938E931C97A9
:1002E0001B961C921E921A975AC088E090E01D96A9
:1002F0009C938E931C9753C01A968D919C911B973B
:100300009C012F5F3F4F1B963C932E931A97FD0144
:10031000E80FF91F64832430310509F040C0ED0176
:10032000AD014D5E5F4FBD016C5F7F4FCD010E94FF
:100330006500882329F087E090E09D878C872FC097
:1003400088E090E09D878C872AC06D3011F06A307C
:10035000B9F453968D919C9154975196ED91FC91DF
:100360005297EE0FFF1F12962D913C911397E20FBB
:10037000F31F918380831D961C921E921C970FC0C1
:1003800088E090E01D969C938E931C9708C06D307A
:1003900011F06A3021F41D961C921E921C97DF9179
:1003A000CF910895CF93DF931F92CDB7DEB789E445
:1003B00091E00E949C03BE016F5F7F4F89E491E052
:1003C0000E94F503882369F089818D3029F46AE061
:1003D00089E491E00E941D04698189E491E00E9412
:1003E0001D0489E491E00E949C030F90DF91CF915E
:1003F0000895EF92FF920F931F93CF93DF93209A6C
:100400000F2EF3E0EF2EF12CF02D0E94D2010AE026
:1004100010E0C0EDD7E00E94D201289A2197D9F7C9
:1004200001501109B1F70AE010E0C0EDD7E00E94D9
:10043000D20128982197D9F701501109B1F781E02D
:10044000E81AF10811F70F2EF3E0EF2EF12CF02D42
:100450000E94D2010AE010E0C0EDD7E00E94D20174
:10046000289A2197D9F701501109B1F70AE010E055
:10047000C0EDD7E00E94D20128982197D9F701500A
:100480001109B1F781E0E81AF10811F72898DF9116
:10049000CF911F910F91FF90EF900895CF93DF932D
:1004A000CDB7DEB7E3970FB6F894DEBF0FBECDBF72
:1004B000789489E491E00E9484038DE1E0E0F1E02A
:1004C000DE01119601900D928A95E1F7BE016F5FF2
:1004D0007F4F89E491E00E944B040E94F9010E9441
:1004E000D201A0E2B1E0E6E2F1E082E391E01D9208
:1004F00011921192E817F907D1F78FE191E00E946C
:10050000DF0246E251E060E271E084E391E00E94A4
:100510005C00E4E3F1E01586148617861686128ADD
:10052000118A8EE390E09A838983BE016F5F7F4FCB
:1005300089E491E00E944B041BAA89E491E00E94A7
:100540009C03BE016D5C7F4F89E491E00E94F5033E
:10055000882399F36BA989E491E00E941D046BA99B
:1005600084E391E00E94A600E8CF1F920F920FB69D
:100570000F9211242F933F934F935F936F937F9329
:100580008F939F93AF93BF93EF93FF938FE191E08E
:100590000E941C03FF91EF91BF91AF919F918F91AA
:1005A0007F916F915F914F913F912F910F900FBE6F
:1005B0000F901F9018958EE191E00E944E02CF930C
:1005C000DF93DC01E1E8F0E080818260808380815C
:1005D0008A7F8083C0E8D0E088818C7F8883808197
:1005E0008860808380818F7E808382E080936F002B
:1005F00087B18F6387B91C9281E088B99C91292FBC
:10060000990F330BF901EE0FFF1FEA0FFB1F478114
:1006100050854556544FFD01E20FF31F81819A0129
:1006200068E08602200D311D11243093890020934B
:100630008800DF91CF910895CF93DF93DC013C9147
:1006400033235CF028B181E090E002C0880F991F4D
:100650003A95E2F78095822388B98C918F5F8C93CD
:10066000863044F548B121E030E0B90102C0660FA0
:10067000771F8A95E2F7CB01842B88B98C91082EDD
:10068000000C990BFC01EE0FFF1FEA0FFB1F2781E7
:1006900030852556344FA80FB91F11968C91A901AA
:1006A00068E08602400D511D11245093890040934B
:1006B000880027C08FEF8C93FD013796ED012196BE
:1006C000BD016D5E7F4F80E090EA219131914991AB
:1006D0002556344F58E04502200D311D1124821B50
:1006E000930BE617F70789F79093890080938800AA
:1006F00053968D919C915497019654969C938E930A
:100700005397DF91CF91089528E12093C1002EE007
:100710002093C2001092C50029E12093C400FC017F
:1007200011A210A213A212A2EC5BFF4F1182108241
:1007300032961182108208952091C00025FF1BC0BF
:10074000FC0122A133A140A151A12417350799F042
:10075000E20FF31F20812093C600FC0122A133A1E8
:100760002F5F3F4F203231051CF433A322A303C077
:10077000FC0113A212A22091C0002223ACF5FC01BF
:10078000EC5BFF4F20813181A9014F5F5F4F403209
:1007900051053CF03296608171816115710509F552
:1007A0000895FC01EA5BFF4F60817181461757078E
:1007B000D9F06091C600FC01E20FF31F64A3FC01B5
:1007C000EC5BFF4F5183408308954091C600FC01CC
:1007D000E20FF31F44A3FC01EC5BFF4F1182108278
:1007E00008954617570789F70895FC01EA5BFF4F04
:1007F0002081318132974081518124173507D9F00A
:10080000FC01E20FF31F24A1FB012083FC01EA5B42
:10081000FF4F208131812F5F3F4F2032310524F47B
:100820003183208381E00895FC01EA5BFF4F118250
:10083000108281E0089580E00895FC0180A191A1DB
:100840009C012F5F3F4F2032310534F042A153A16C
:1008500041155105E1F40DC042A153A124173507FC
:1008600051F0DF01A80FB91F6C9331A320A381E0E1
:10087000089580E0089580E0089580E00895DF0104
:10088000A80FB91F6C9311A210A281E0089524173C
:100890003507A9F7F2CF0F931F93CF93DF93EB01A7
:1008A0006881662361F08C01219602C0882341F0A3
:1008B000C8010E941D0469916111F8CF01C081E057
:1008C000DF91CF911F910F910895EE0FFF1F0590BB
:0A08D000F491E02D0994F894FFCF95
:1008DA0053746172746564205375626D6172696ED6
:0E08EA00652030313035323032300A0D0000DA
:00000001FF
